:100000000C9474000C9486000C9486000C9486006A
:100010000C9486000C9486000C9486000C94860048
:100020000C9486000C9486000C9486000C94860038
:100030000C9486000C9486000C9486000C94860028
:100040000C9486000C9486000C9486000C94860018
:100050000C9486000C9486000C9486000C94860008
:100060000C94C6000C9486000C9486000C948600B8
:100070000C9486000C9486000C9486000C948600E8
:100080000C9486000C9486000C9486000C948600D8
:100090000C9486000C9486000C9486000C948600C8
:1000A0000C9486000C9486000C9486000C948600B8
:1000B0000C9486000C9486000C9486000C948600A8
:1000C0000C9486000C9486000C9486000C94860098
:1000D0000C9486000C9486000C9486000C94860088
:1000E0000C9486000C94860011241FBECFEFCDBF68
:1000F000DFE7DEBF20E4A0E0B0E401C01D92A33042
:10010000B207E1F70E9488000C94DF000C94000015
:1001100088ED84BF84E280936800E0E0F6E087E049
:10012000808780E88093620480E480934104A0E0AB
:10013000BBE08FEB9DE51C968D939C931D971196CC
:100140001C92119781E08C938093A0008387848711
:1001500093E092838083E0E0F2E090EA908B84A7C2
:100160007894809102408823E1F3109202408091BC
:100170000040909101408115984020F480E48093E4
:100180004604EFCF80E480934504EBCF1F920F929B
:100190000FB60F9211248F939F9380911006909128
:1001A0001106809300409093014081E080930240CB
:1001B0009F918F910F900FBE0F901F901895F894FC
:0201C000FFCF6F
:00000001FF
