S0100000536F6C7574696F6E2E73726563B7
S11300000C9454000C9466000C9466000C946600E6
S11300100C9466000C9466000C9466000C946600C4
S11300200C9466000C9466000C9466000C946600B4
S11300300C9466000C9466000C94D7000C94660033
S11300400C9466000C9466000C9466000C94660094
S11300500C9466000C9466000C9466000C94660084
S11300600C9466000C9466000C9466000C94660074
S11300700C9466000C9466000C9466000C94660064
S11300800C9466000C9466000C9466000C94660054
S11300900C9466000C9466000C9466000C94660044
S11300A00C9466000C94660011241FBECFEFCDBFE4
S11300B0DFE7DEBF20E4A0E0B0E401C01D92A2307F
S11300C0B207E1F70E9483000C94FF000C94000037
S11300D0882339F0E0E4F4E081E0868382E08583DC
S11300E00895E0E4F4E082E0868381E08583089566
S11300F0811520E1920710F08FEF9FE08093380A7A
S11301009093390A089588ED84BF84E2809368004F
S1130110E0E0F4E081E8818388E0818B80E00E9464
S1130120680080E098E00E94780023E02093410476
S1130130E0E0FBE080EC9DE58487958781E08583A2
S11301401182808395E09093B000E0E0F6E097E0C0
S1130150908722838083E0E0FAE02FEF3FE026A33C
S113016037A383E1818390837894C0E0809108046D
S113017081FD0FC081E0C11180E0C82F0E9468009A
S11301802FE789EA93E0215080409040E1F700C0D6
S1130190000081E080930A0680910D0680FFFCCF69
S11301A080911006909111060E947800DFCF1F9273
S11301B00F920FB60F9211242F938F939F9381E088
S11301C08093060B8091004090910140843F21E090
S11301D0920741F4109200401092014080E880930D
S11301E0070405C0019680930040909301409F91BD
S11301F08F912F910F900FBE0F901F901895F89428
S1050200FFCF2A
S9030000FC
