S01100004C6F7720506F7765722E73726563B4
S11300000C9474000C947E000C947E000C947E007E
S11300100C9496000C947E000C947E000C947E004C
S11300200C947E000C947E000C947E000C947E0054
S11300300C947E000C947E000C947E000C947E0044
S11300400C947E000C947E000C947E000C947E0034
S11300500C947E000C947E000C947E000C947E0024
S11300600C947E000C947E000C947E000C947E0014
S11300700C947E000C947E000C947E000C947E0004
S11300800C947E000C947E000C947E000C947E00F4
S11300900C947E000C947E000C947E000C947E00E4
S11300A00C947E000C947E000C947E000C947E00D4
S11300B00C947E000C947E000C947E000C947E00C4
S11300C00C947E000C947E000C947E000C947E00B4
S11300D00C947E000C947E000C947E000C947E00A4
S11300E00C947E000C947E0011241FBECFEFCDBF74
S11300F0DFE7DEBF0E9480000C94A5000C94000092
S113010080E480934104E0E4F1E080E8808381E0CE
S1130110828B81E7808B7894E0E5F0E085E0808352
S11301208895108280E480934704F6CF1F920F9243
S11301300FB60F9211248F9381E0809353018F9116
S11101400F900FBE0F901F901895F894FFCFEC
S9030000FC
