S01B000050617274203320536F6C7574696F6E204144432E73726563BA
S11300000C9474000C948B000C948B000C948B0057
S11300100C948B000C948B000C948B000C948B0030
S11300200C948B000C948B000C948B000C948B0020
S11300300C948B000C948B000C948B000C948B0010
S11300400C948B000C948B000C948B000C948B0000
S11300500C948B000C948B000C948B000C948B00F0
S11300600C948B000C948B000C948B000C948B00E0
S11300700C948B000C948B000C948B000C948B00D0
S11300800C948B000C948B000C948B000C948B00C0
S11300900C948B000C948B000C948B000C948B00B0
S11300A00C948B000C948B000C948B000C948B00A0
S11300B00C948B000C948B000C948B000C948B0090
S11300C00C948B000C948B000C948B000C948B0080
S11300D00C948B000C948B000C948B000C948B0070
S11300E00C948B000C948B0011241FBECFEFCDBF5A
S11300F0DFE7DEBF10E4A0E0B0E4E6ECF7E000E008
S11301000BBF02C007900D92A231B107D9F70E942C
S1130110CF000C94E1030C9400009091240895FF07
S1130120FCCF8093220808951F93CF93DF93EC01B3
S113013010E0812F90E0FE0101900020E9F7319753
S1130140EC1BFD0B8E179F0740F4FE01E80FF91F0F
S113015080810E948D001F5FECCFDF91CF911F91B2
S11301600895CF93DF93CDB7DEB7C456D109CDBF81
S1130170DEBFAE0147595F4FFA0161917191AF0142
S1130180CE0101960E940A01CE0101960E949400BC
S1130190CC59DF4FCDBFDEBFDF91CF910895E0E2B0
S11301A0F8E080E4868383E896E08087918785E0A1
S11301B08093A000E0E4F4E081E0818392E0928304
S11301C090E890936204E0E0F6E097E09087128272
S11301D0808381E080930A0680910D0680FFFCCF26
S11301E080911006909111069F938F9380E090E484
S11301F09F938F930E94B1002FE78AE196E02150EC
S113020080409040E1F700C000000F900F900F90E5
S11302100F90DFCF0F931F93CF93DF93CDB7DEB74C
S11302202E97CDBFDEBF8C0186E08C8309831A83B1
S11302308FEF9FE78D839E83CE0101960E942D014F
S1130240EF81F885E00FF11F10822E96CDBFDEBF3F
S1130250DF91CF911F910F9108952F923F924F926A
S11302605F926F927F928F929F92AF92BF92CF9242
S1130270DF92EF92FF920F931F93CF93DF93CDB74B
S1130280DEB72B97CDBFDEBF6C017B018A01FC0179
S113029016821782838181FFCCC1CE0101963C0175
S11302A0F6019381F70193FD859193FF81917F017D
S11302B0882309F4BAC1853239F493FD859193FFFB
S11302C081917F01853229F4B60190E00E944703B1
S11302D0E7CF912C212C312CFFE1F315D8F08B3290
S11302E079F038F4803279F08332A1F4232D20613F
S11302F01DC08D3261F0803369F4232D216016C056
S1130300832D8260382EE32DE4603E2E2AC0F32D27
S1130310F8601DC037FC2DC020ED280F2A3040F0B6
S11303208E32B9F436FC81C1232D2064322E19C0DB
S113033036FE06C08AE0989E200D1124922E11C02C
S1130340EAE02E9E200D1124222EF32DF0623F2E82
S113035008C08C3621F4832D8068382E02C088367C
S113036041F4F70193FD859193FF81917F01811100
S1130370B3CF982F9F7D9554933028F40C5F1F4F73
S11303809FE399830DC0833631F0833771F0833551
S113039009F059C021C0F801808189830E5F1F4F85
S11303A088248394912C530113C02801F2E04F0E4A
S11303B0511CF801A080B18036FE03C0692D70E0A5
S11303C002C06FEF7FEFC5010E943C034C01820124
S11303D0F32DFF773F2E16C0280122E0420E511C58
S11303E0F801A080B18036FE03C0692D70E002C020
S11303F06FEF7FEFC5010E9431034C01F32DF068CC
S11304003F2E820133FC1BC0822D90E08816990692
S1130410B0F4B60180E290E00E9447032A94F4CF3E
S1130420F50137FC859137FE81915F01B60190E0BB
S11304300E94470321102A9421E0821A9108811412
S1130440910471F7E8C0843611F0893641F5F8015A
S113045037FE07C060817181828193810C5F1F4FD9
S113046008C060817181072E000C880B990B0E5F08
S11304701F4FF32DFF763F2E97FF09C0909580956F
S1130480709561957F4F8F4F9F4FF0683F2E2AE004
S113049030E0A3010E948303882E861845C0853767
S11304A031F4232D2F7EB22E2AE030E025C0932D87
S11304B0997FB92E8F36C1F018F4883579F0B5C01C
S11304C0803719F0883721F0B0C0E92FE061BE2EE3
S11304D0B4FE0DC0FB2DF460BF2E09C034FE0AC06B
S11304E0292F2660B22E06C028E030E005C020E1A6
S11304F030E002C020E132E0F801B7FE07C06081BD
S11305007181828193810C5F1F4F06C0608171816C
S113051080E090E00E5F1F4FA3010E948303882EAA
S11305208618FB2DFF773F2E36FE0DC0232D2E7F20
S1130530A22E891458F434FE0BC032FC09C0832D5A
S11305408E7EA82E05C0B82CA32C03C0B82C01C0E5
S1130550B92CA4FE0FC0FE01E80DF11D808180338B
S113056021F49A2D997EA92E09C0A2FE06C0B39447
S1130570B39404C08A2D867809F0B394A3FC11C007
S1130580A0FE06C0B21488F4280C922C9B180EC04E
S1130590B21460F4B60180E290E00E944703B39481
S11305A0F7CFB21418F42B1802C0982C212CA4FEF7
S11305B010C0B60180E390E00E944703A2FE17C07A
S11305C0A1FC03C088E790E002C088E590E0B60192
S11305D00CC08A2D867859F0A1FE02C08BE201C0BE
S11305E080E2A7FC8DE2B60190E00E9447038914E3
S11305F038F4B60180E390E00E9447039A94F7CF61
S11306008A94F301E80DF11D8081B60190E00E9407
S113061047038110F5CF222009F442CEB60180E2CF
S113062090E00E9447032A94F6CFF60186819781D1
S113063002C08FEF9FEF2B96CDBFDEBFDF91CF912E
S11306401F910F91FF90EF90DF90CF90BF90AF90EC
S11306509F908F907F906F905F904F903F902F90DE
S11306600895FC010590615070400110D8F7809501
S113067090958E0F9F1F0895FC016150704001906A
S11306800110D8F7809590958E0F9F1F08950F93B2
S11306901F93CF93DF93FB01238121FD03C08FEFD1
S11306A09FEF2CC022FF16C04681578124813581DB
S11306B04217530744F4A081B1819D012F5F3F4F3E
S11306C0208331838C93268137812F5F3F4F26838C
S11306D0378314C08B01EC01FB010084F185E02D0C
S11306E00995892BE1F6D80116968D919C9117975F
S11306F0019616968D939C931797CE01DF91CF9117
S11307001F910F910895FA01AA27283051F1203141
S113071081F1E8946F936E7F6E5F7F4F8F4F9F4F91
S1130720AF4FB1E03ED0B4E03CD0670F781F891FD3
S11307309A1FA11D680F791F8A1F911DA11D6A0FA1
S1130740711D811D911DA11D20D009F468943F9154
S11307502AE0269F11243019305D3193DEF6CF0153
S11307600895462F4770405D4193B3E00FD0C9F719
S1130770F6CF462F4F70405D4A3318F0495D31FD86
S11307804052419302D0A9F7EACFB4E0A6959795D9
S1130790879577956795BA95C9F7009761057105AF
S11307A008959B01AC010A2E0694579547953795F9
S11307B02795BA95C9F7620F731F841F951FA01D53
S10907C00895F894FFCF38
S11307C641444320526573756C74203D2025640DA5
S10507D60A0013
S9030000FC
