S01D000050617274203620536F6C7574696F6E204D6F746F722E737265636C
S11300000C9474000C947E000C947E000C947E007E
S11300100C947E000C947E000C947E000C947E0064
S11300200C947E000C947E000C947E000C947E0054
S11300300C947E000C947E000C947E000C947E0044
S11300400C947E000C947E000C947E000C947E0034
S11300500C947E000C947E000C947E000C947E0024
S11300600C947E000C947E000C947E000C947E0014
S11300700C947E000C947E000C947E000C947E0004
S11300800C947E000C947E000C947E000C947E00F4
S11300900C947E000C947E000C947E000C947E00E4
S11300A00C947E000C947E000C947E000C947E00D4
S11300B00C947E000C947E000C947E000C947E00C4
S11300C00C947E000C947E000C947E000C947E00B4
S11300D00C947E000C947E000C947E000C947E00A4
S11300E00C947E000C947E0011241FBECFEFCDBF74
S11300F0DFE7DEBF0E949B000C94E5000C94000037
S1130100882339F084E08093460482E080930504D8
S1130110089582E08093060484E080934504089562
S1130120811520E1920710F08FEF9FE08093380A49
S11301309093390A089580E00E94800080E098E05E
S11301400E94900083E08093010480E8809362041D
S1130150E0E4F4E094E09183828388E0878B85E097
S11301608093A000E0E0F6E087E0808781E082836E
S11301708083E0E0FAE020E038E020A731A72FEF09
S11301803FE026A337A393E191838083C0E080916D
S11301904804882364F081E0C11180E0C82F0E94E4
S11301A080008FE493EC0197F1F700C0000081E038
S11301B080930A0680910D0680FFFCCF8091100683
S11101C0909111060E949000E2CFF894FFCFB8
S9030000FC
