S01B000050617274203420536F6C7574696F6E2050574D2E737265638D
S11300000C9474000C947E000C947E000C947E007E
S11300100C947E000C947E000C947E000C947E0064
S11300200C947E000C947E000C947E000C947E0054
S11300300C947E000C947E000C947E000C947E0044
S11300400C947E000C947E000C947E000C947E0034
S11300500C947E000C947E000C947E000C947E0024
S11300600C947E000C947E000C947E000C947E0014
S11300700C947E000C947E000C947E000C947E0004
S11300800C947E000C947E000C947E000C947E00F4
S11300900C947E000C947E000C947E000C947E00E4
S11300A00C947E000C947E000C947E000C947E00D4
S11300B00C947E000C947E000C947E000C947E00C4
S11300C00C947E000C947E000C947E000C947E00B4
S11300D00C947E000C947E000C947E000C947E00A4
S11300E00C947E000C947E0011241FBECFEFCDBF74
S11300F0DFE7DEBF0E9499000C94C3000C9400005B
S1130100853608F084E628E2829FC00111248851D4
S11301109C4F8093380A9093390A0895E0E0FAE0FE
S11301208FE39CE986A397A383E1818383E08083A3
S1130130089581E0809301040E948E0080E00E9473
S113014080002FE78AE196E0215080409040E1F75B
S113015000C0000082E30E9480002FE78AE196E05D
S1130160215080409040E1F700C0000084E60E94E6
S113017080002FE78AE196E0215080409040E1F72B
S10D018000C00000DBCFF894FFCFAD
S9030000FC
