S017000050617274203120536F6C7574696F6E2E73726563A8
S11300000C9474000C947E000C947E000C947E007E
S11300100C947E000C947E000C947E000C947E0064
S11300200C947E000C947E000C947E000C947E0054
S11300300C947E000C947E000C947E000C947E0044
S11300400C947E000C947E000C947E000C947E0034
S11300500C947E000C947E000C947E000C947E0024
S11300600C947E000C947E000C947E000C947E0014
S11300700C947E000C947E000C947E000C947E0004
S11300800C947E000C947E000C947E000C947E00F4
S11300900C947E000C947E000C947E000C947E00E4
S11300A00C947E000C947E000C947E000C947E00D4
S11300B00C947E000C947E000C947E000C947E00C4
S11300C00C947E000C947E000C947E000C947E00B4
S11300D00C947E000C947E000C947E000C947E00A4
S11300E00C947E000C947E0011241FBECFEFCDBF74
S11300F0DFE7DEBF0E9480000C9490000C940000A7
S113010080E48093410480E4809347042FE78AE1EC
S113011096E0215080409040E1F700C00000F3CF0A
S1070120F894FFCF7D
S9030000FC
