:100000000C9474000C9486000C9486000C9486006A
:100010000C9486000C9486000C9486000C94860048
:100020000C9486000C9486000C9486000C94860038
:100030000C94B6000C9486000C9486000C948600F8
:100040000C9486000C9486000C9486000C94860018
:100050000C9486000C9486000C9486000C94860008
:100060000C9486000C9486000C9486000C948600F8
:100070000C9486000C9486000C9486000C948600E8
:100080000C9486000C9486000C9486000C948600D8
:100090000C9486000C9486000C9486000C948600C8
:1000A0000C9486000C9486000C9486000C948600B8
:1000B0000C9486000C9486000C9486000C948600A8
:1000C0000C9486000C9486000C9486000C94860098
:1000D0000C9486000C9486000C9486000C94860088
:1000E0000C9486000C94860011241FBECFEFCDBF68
:1000F000DFE7DEBF20E4A0E0B0E401C01D92A43041
:10010000B207E1F70E9488000C94DE000C94000016
:1001100080E480934104E0E0FBE0118281E085838C
:100120002FE93FE0248735878083789440E050E0D2
:10013000BA018091004090910140A0910240B0919D
:100140000340841B950BA60BB70B843F9140A10580
:10015000B10578F340910040509101406091024018
:100160007091034080E480934704E3CF1F920F9285
:100170000FB60F9211248F939F93AF93BF9381E09B
:100180008093060B8091004090910140A091024025
:10019000B09103400196A11DB11D80930040909342
:1001A0000140A0930240B0930340BF91AF919F9153
:1001B0008F910F900FBE0F901F901895F894FFCF5E
:00000001FF
