:1000000019C020C01FC01EC01DC01CC01BC01AC00C
:1000100019C018C017C016C015C014C013C012C034
:1000200011C010C00FC00EC00DC021C00BC00AC04F
:1000300009C008C011241FBECFEFCDBFDFE3DEBF74
:1000400002D029C0DDCF88ED84BF81E080936100BC
:10005000E0E0F4E094E091839093310498E0948B95
:10006000E0E2F8E08283118280837894FFCF1F92D0
:100070000F920FB60F9211248F93EF93FF93E0E24C
:10008000F8E084818483FF91EF918F910F900FBEF0
:0A0090000F901F901895F894FFCF11
:00000001FF
