:100000000C9474000C9493000C9493000C94930043
:100010000C9493000C9493000C9493000C94930014
:100020000C9493000C9493000C9493000C94930004
:100030000C9493000C9493000C9493000C949300F4
:100040000C9493000C9493000C9493000C949300E4
:100050000C9493000C9493000C9493000C949300D4
:100060000C9493000C9493000C9493000C949300C4
:100070000C9493000C9493000C9493000C946B01DB
:100080000C9493000C9493000C9493000C949300A4
:100090000C9493000C9493000C9493000C94930094
:1000A0000C9493000C9493000C9493000C94930084
:1000B0000C9493000C9493000C9493000C94930074
:1000C0000C9493000C9493000C9493000C94930064
:1000D0000C9493000C9493000C9493000C94930054
:1000E0000C9493000C94930011241FBECFEFCDBF4E
:1000F000DFE7DEBF11E4A0E0B0E4E4EEF9E000E009
:100100000BBF02C007900D92A238B107D9F721E4C6
:10011000A2E8B1E401C01D92AA3EB207E1F70E9435
:10012000D7000C94F0040C9400009091240895FFE3
:10013000FCCF8093220808951F93CF93DF93EC01A7
:1001400010E0812F90E0FE0101900020E9F7319747
:10015000EC1BFD0B8E179F0740F4FE01E80FF91F03
:1001600080810E9495001F5FECCFDF91CF911F919E
:100170000895CF93DF93CDB7DEB7C456D109CDBF75
:10018000DEBFAE0147595F4FFA0161917191AF0136
:10019000CE0101960E941902CE0101960E949C0098
:1001A000CC59DF4FCDBFDEBFDF91CF910895E0E2A4
:1001B000F8E080E8858380EC868383E896E080879A
:1001C0009187E0E4F4E081E0818382E0828380E44F
:1001D000818380E090E49F938F930E94B90078948C
:1001E0000F900F908091E9418823E1F31092E9414B
:1001F0006AE270E484E891E40E94DD01D82FC92FFF
:100200006AE270E480E090E00E94DD010E94BF019C
:10021000182F6AE270E480E090E00E94DD01892BF3
:10022000C1F76D2F7C2F8CE290E40E94E101892BB5
:1002300041F06D2F7C2F80E390E40E94E101892B37
:10024000D9F4112329F080E48093450411E003C020
:1002500080E4809346041F921F93CF93DF9384E33F
:1002600090E49F938F930E94B9000F900F900F908E
:100270000F900F900F90B6CF6D2F7C2F8CE590E4F0
:100280000E94E101892BF1F481E690E49F938F9322
:100290000E94B9008FE890E49F938F930E94B90069
:1002A0008DED90E49F938F930E94B9008EE291E4CC
:1002B0009F938F930E94B9008DB79EB708968DBF0C
:1002C0009EBF90CF8AE591E49F938F930E94B900DF
:1002D0000F900F9087CF1F920F920FB60F9211249D
:1002E0000BB60F928F939F93EF93FF9390912008FB
:1002F0008091240885FFFCCF909322089A30A9F0C2
:100300009D3099F0983089F0E091E84181E08E0FBE
:100310008093E841F0E0EC57FE4B90838091E841F8
:10032000853610F11092E8411FC09D3061F4E091D4
:10033000E841F0E0EC57FE4B10821092E84181E07A
:100340008093E94111C0983029F48091E8418111EE
:1003500003C003C080E001C081E0882329F08091C0
:10036000E84181508093E841FF91EF919F918F91F7
:100370000F900BBE0F900FBE0F901F901895FC01B1
:1003800088279927E89421912032E9F3293010F049
:100390002E30C8F32B3241F02D3239F4689404C06A
:1003A0000E941102820F911D219120532A30C0F327
:1003B0001EF4909581959F4F089542E851E40C9466
:1003C000EA01FB01DC018D91019080190110D9F344
:1003D000990B0895FA01A191B081009719F4109733
:1003E000E1F0CD01DC01CD010D90002011F4C00140
:1003F00013C0FB012191222319F02015D9F7F3CF67
:10040000FB012191201519F41E92119606C022239A
:10041000C1F70D900020A1F7D001FA01A193B0839C
:1004200008957AE0979F902D879F802D910D11243C
:1004300008950F931F93CF93DF93CDB7DEB72E9719
:10044000CDBFDEBF8C0186E08C8309831A838FEFDA
:100450009FE78D839E83CE0101960E943C02EF812F
:10046000F885E00FF11F10822E96CDBFDEBFDF9121
:10047000CF911F910F9108952F923F924F925F92CB
:100480006F927F928F929F92AF92BF92CF92DF92A4
:10049000EF92FF920F931F93CF93DF93CDB7DEB709
:1004A0002B97CDBFDEBF6C017B018A01FC01168258
:1004B0001782838181FFCCC1CE0101963C01F601F8
:1004C0009381F70193FD859193FF81917F018823AB
:1004D00009F4BAC1853239F493FD859193FF819176
:1004E0007F01853229F4B60190E00E945604E7CFDF
:1004F000912C212C312CFFE1F315D8F08B3279F0BF
:1005000038F4803279F08332A1F4232D20611DC0AC
:100510008D3261F0803369F4232D216016C0832D64
:100520008260382EE32DE4603E2E2AC0F32DF86061
:100530001DC037FC2DC020ED280F2A3040F08E3230
:10054000B9F436FC81C1232D2064322E19C036FE49
:1005500006C08AE0989E200D1124922E11C0EAE078
:100560002E9E200D1124222EF32DF0623F2E08C066
:100570008C3621F4832D8068382E02C0883641F4F1
:10058000F70193FD859193FF81917F018111B3CF95
:10059000982F9F7D9554933028F40C5F1F4F9FE355
:1005A00099830DC0833631F0833771F0833509F0BC
:1005B00059C021C0F801808189830E5F1F4F8824B4
:1005C0008394912C530113C02801F2E04F0E511C6B
:1005D000F801A080B18036FE03C0692D70E002C032
:1005E0006FEF7FEFC5010E944B044C018201F32D98
:1005F000FF773F2E16C0280122E0420E511CF80161
:10060000A080B18036FE03C0692D70E002C06FEF9C
:100610007FEFC5010E9440044C01F32DF0683F2E8E
:10062000820133FC1BC0822D90E088169906B0F43D
:10063000B60180E290E00E9456042A94F4CFF501BE
:1006400037FC859137FE81915F01B60190E00E94F1
:10065000560421102A9421E0821A910881149104F1
:1006600071F7E8C0843611F0893641F5F80137FE9C
:1006700007C060817181828193810C5F1F4F08C028
:1006800060817181072E000C880B990B0E5F1F4F44
:10069000F32DFF763F2E97FF09C0909580957095BA
:1006A00061957F4F8F4F9F4FF0683F2E2AE030E0DB
:1006B000A3010E949204882E861845C0853731F424
:1006C000232D2F7EB22E2AE030E025C0932D997F76
:1006D000B92E8F36C1F018F4883579F0B5C080375F
:1006E00019F0883721F0B0C0E92FE061BE2EB4FECA
:1006F0000DC0FB2DF460BF2E09C034FE0AC0292FA7
:100700002660B22E06C028E030E005C020E130E0CF
:1007100002C020E132E0F801B7FE07C060817181BC
:10072000828193810C5F1F4F06C06081718180E0E0
:1007300090E00E5F1F4FA3010E949204882E86183E
:10074000FB2DFF773F2E36FE0DC0232D2E7FA22ED0
:10075000891458F434FE0BC032FC09C0832D8E7E00
:10076000A82E05C0B82CA32C03C0B82C01C0B92CEE
:10077000A4FE0FC0FE01E80DF11D8081803321F43D
:100780009A2D997EA92E09C0A2FE06C0B394B394F7
:1007900004C08A2D867809F0B394A3FC11C0A0FE92
:1007A00006C0B21488F4280C922C9B180EC0B21408
:1007B00060F4B60180E290E00E945604B394F7CF53
:1007C000B21418F42B1802C0982C212CA4FE10C0CF
:1007D000B60180E390E00E945604A2FE17C0A1FC7F
:1007E00003C088E790E002C088E590E0B6010CC045
:1007F0008A2D867859F0A1FE02C08BE201C080E20A
:10080000A7FC8DE2B60190E00E945604891438F4EA
:10081000B60180E390E00E9456049A94F7CF8A9440
:10082000F301E80DF11D8081B60190E00E945604AD
:100830008110F5CF222009F442CEB60180E290E08B
:100840000E9456042A94F6CFF6018681978102C051
:100850008FEF9FEF2B96CDBFDEBFDF91CF911F9122
:100860000F91FF90EF90DF90CF90BF90AF909F904F
:100870008F907F906F905F904F903F902F90089552
:10088000FC010590615070400110D8F7809590955B
:100890008E0F9F1F0895FC01615070400190011060
:1008A000D8F7809590958E0F9F1F08950F931F93F3
:1008B000CF93DF93FB01238121FD03C08FEF9FEFD7
:1008C0002CC022FF16C046815781248135814217F2
:1008D000530744F4A081B1819D012F5F3F4F2083D6
:1008E00031838C93268137812F5F3F4F2683378357
:1008F00014C08B01EC01FB010084F185E02D09950A
:10090000892BE1F6D80116968D919C911797019647
:1009100016968D939C931797CE01DF91CF911F91DF
:100920000F910895FA01AA27283051F1203181F161
:10093000E8946F936E7F6E5F7F4F8F4F9F4FAF4FE7
:10094000B1E03ED0B4E03CD0670F781F891F9A1FFA
:10095000A11D680F791F8A1F911DA11D6A0F711DAE
:10096000811D911DA11D20D009F468943F912AE0BA
:10097000269F11243019305D3193DEF6CF010895A2
:10098000462F4770405D4193B3E00FD0C9F7F6CFD3
:10099000462F4F70405D4A3318F0495D31FD40529B
:1009A000419302D0A9F7EACFB4E0A6959795879531
:1009B00077956795BA95C9F7009761057105089510
:1009C0009B01AC010A2E06945795479537952795BC
:1009D000BA95C9F7620F731F841F951FA01D089554
:0409E000F894FFCFB9
:1009E400436F6D6D616E6420696E746572666163D8
:1009F400652E2054797065202268656C702220660B
:100A04006F722068656C700D0A0020004C4544002C
:100A14006C656400436F6D6D616E642025732061A5
:100A2400636B6E6F776C656467656420776974685F
:100A34002076616C75652025640D0A0068656C700C
:100A44000057656C636F6D6520746F207468652052
:100A540055415254205265636569766520436F6D34
:100A64006D616E642064656D6F210D0A0D0A00547A
:100A74006869732064656D6F20636F6E74726F6C48
:100A840073207468652076616C7565206F662074C8
:100A94006865206275696C742D696E204C4544202C
:100AA4006F662074686520437572696F7369747921
:100AB400204E616E6F206B69742E0D0A005479709C
:100AC4006520226C6564203C783E2220776865723C
:100AD40065203C783E20697320616E20696E7465E0
:100AE4006765722076616C756520626574776565EB
:100AF4006E203020616E6420312E20546865204FB2
:100B040055542076616C7565206F660D0A0050435C
:100B1400362077696C6C20626520534554206F72CF
:100B240020434C4541524544206163636F726469BC
:100B34006E676C79210D0A0D0A00556E6B6E6F7726
:100B44006E20636F6D6D616E642C20747970652006
:100B54002268656C702220666F722068656C700D67
:020B64000A0085
:00000001FF
