S01A00004144435F576974685F496E746572727570742E737265631B
S11300000C9474000C9493000C9493000C9493003F
S11300100C9493000C9493000C9493000C94930010
S11300200C9493000C9493000C9493000C94930000
S11300300C94E2000C9493000C9493000C949300A1
S11300400C9493000C9493000C9493000C949300E0
S11300500C9493000C9493000C9493000C949300D0
S11300600C94F3000C9493000C9493000C94930060
S11300700C9493000C9493000C9493000C949300B0
S11300800C9493000C9493000C9493000C949300A0
S11300900C9493000C9493000C9493000C94930090
S11300A00C9493000C9493000C9493000C94930080
S11300B00C9493000C9493000C9493000C94930070
S11300C00C9493000C9493000C9493000C94930060
S11300D00C9493000C9493000C9493000C94930050
S11300E00C9493000C94930011241FBECFEFCDBF4A
S11300F0DFE7DEBF10E4A0E0B0E4E2E7F2E000E016
S11301000BBF02C007900D92A230B107D9F720E4CB
S1130110A2E0B0E401C01D92A830B207E1F70E944A
S113012095000C9437010C94000088ED84BF84E2A0
S113013080936800E0E0FBE080EE9EE28487958790
S113014081E08583118280838093A000E091024046
S1130150F0E0E050F04C9081E0E0F6E09087848796
S113016093E092838083E0E6F4E080EC828384E091
S1130170868B878B80E4809341047894809103403C
S11301808823E1F380910340815080930340809160
S11301900340863019F0873091F00FC080910440FD
S11301A0909105408115984020F480E480934604A2
S11301B006C080E48093450402C01092024010926D
S11301C00340DCCF1F920F920FB60F9211248F932E
S11301D081E08093060B80930A068F910F900FBEE7
S11301E00F901F9018951F920F920FB60F92112423
S11301F00BB60F928F939F93EF93FF93E09102407E
S1130200F0E08091100690911106EE0FFF1FEC5F55
S1130210FF4B80839183E0910240F0E0E050F04C8A
S1130220808180930340809103408F5F80930340DB
S113023080910240811106C0809102408F5F8093BB
S1130240024002C010920240E0910240F0E0E0500F
S1130250F04C808180930806FF91EF919F918F91DC
S11302600F900BBE0F900FBE0F901F901895F8942F
S1050270FFCFBA
S1050272060779
S9030000FC
